:100000000C9463000C948B000C948B000C94E20312
:100010000C94E2030C94E2030C948B000C948B0080
:100020000C948B000C948B000C948B000C948B0024
:100030000C948B000C948B000C948B000C948B0014
:100040000C9498030C948B000C94E0020C94BA026C
:100050000C948B000C948B000C948B000C948B00F4
:100060000C948B000C948B0000000008000201002F
:100070000003040700000000000000000000000072
:10008000250028002B0000000000240027002A0083
:1000900000000000230026002900040404040404D6
:1000A0000404020202020202030303030303010227
:1000B00004081020408001020408102001020408F6
:1000C0001020D30AC90A11241FBECFEFD8E0DEBF2B
:1000D000CDBF15E0A0E0B1E0EEE2F8E102C005908E
:1000E0000D92A23AB107D9F726E0A2EAB5E001C025
:1000F0001D92A43CB207E1F710E0C2E6D0E004C0D4
:100100002197FE010E94FF0BC136D107C9F70E945B
:10011000FD070C940A0C0C940000CF92DF92EF9232
:10012000FF920F931F93CF93DF936C017A018B01A2
:10013000C0E0D0E0CE15DF0589F0D8016D918D01CA
:10014000D601ED91FC910190F081E02DC601099559
:10015000892B11F47E0102C02196ECCFC701DF91FB
:10016000CF911F910F91FF90EF90DF90CF90089566
:10017000FC01538D448D252F30E0842F90E0821BAD
:10018000930B541710F0CF96089501970895FC0132
:10019000918D828D981761F0828DDF01A80FB11DBE
:1001A0005D968C91928D9F5F9F73928F90E00895E2
:1001B0008FEF9FEF0895FC01918D828D981731F09C
:1001C000828DE80FF11D858D90E008958FEF9FEFF0
:1001D0000895FC01918D228D892F90E0805C9F4FC6
:1001E000821B91098F73992708958FEE95E00E94E5
:1001F000E90021E0892B09F420E0822F0895FC0119
:10020000848DDF01A80FB11DA35ABF4F2C91848D9F
:1002100090E001968F739927848FA689B7892C93D4
:10022000A089B1898C9180648C93938D848D98136F
:1002300006C00288F389E02D80818F7D8083089538
:10024000EF92FF920F931F93CF93DF93EC0181E026
:10025000888F9B8D8C8D981305C0E889F9898081E2
:1002600085FD24C0F62E0B8D10E00F5F1F4F0F731E
:100270001127E02E8C8DE8120CC00FB607FCFACFC8
:10028000E889F989808185FFF5CFCE010E94FF00C2
:10029000F1CF8B8DFE01E80FF11DE35AFF4FF08285
:1002A0000B8FEA89FB898081806207C0EE89FF8914
:1002B0006083E889F98980818064808381E090E0AF
:1002C000DF91CF911F910F91FF90EF900895CF9301
:1002D000DF93EC01888D8823C9F0EA89FB8980814E
:1002E00085FD05C0A889B9898C9186FD0FC00FB620
:1002F00007FCF5CF808185FFF2CFA889B9898C9161
:1003000085FFEDCFCE010E94FF00E7CFDF91CF91B7
:10031000089580E090E0892B29F00E94F50081117A
:100320000C94000008953FB7F8948091E7059091F0
:10033000E805A091E905B091EA0526B5A89B05C09E
:100340002F3F19F00196A11DB11D3FBFBA2FA92F54
:10035000982F8827820F911DA11DB11DBC01CD01D1
:1003600042E0660F771F881F991F4A95D1F70895BD
:100370002091ED053091EE052817390771F4909121
:10038000EB058091EC05981741F0E091EB05F0E06A
:10039000EE55FA4F808190E008958FEF9FEF08951A
:1003A00008951F93CF93DF93DC015C962D913C91D0
:1003B0005D972115310539F481E090E013969C9307
:1003C0008E9312973DC05196ED91FC9152975096A5
:1003D0009C915097892F80951FB75E964C915E97A0
:1003E00041FB772770F941FD6095F89440817723B0
:1003F00011F0492B01C048234083E9012197F1F70F
:1004000048E0508160FF02C0592B01C0582350833F
:10041000E9012197F1F76695415099F7772321F08B
:1004200090818923808303C08081982B90831FBF94
:100430005C968D919C915D970197F1F721E030E0FA
:10044000C901DF91CF911F9108952091ED05309161
:10045000EE052817390771F48091EC052091EB0522
:1004600090E0805C9F4F821B910960E470E00E94E5
:10047000B50B089580E090E008952091ED0530914E
:10048000EE0528173907B9F49091EB058091EC053A
:10049000981789F0E091EB05F0E0EE55FA4F808176
:1004A0002091EB0530E02F5F3F4F2F7333272093D0
:1004B000EB0590E008958FEF9FEF0895E091ED0533
:1004C000F091EE05E817F90769F4A389B4899C91C6
:1004D0008589809589238C931092EE051092ED0505
:1004E00081E0089580E00895089580E090E0089507
:1004F00085E291E00E945B0587E391E00E945B0545
:1005000089E491E00E945B058AE691E00E945B0528
:1005100087E891E00E945B0583EA91E00E945B0519
:100520008EEB91E00E945B058CED91E00E945B05F3
:100530008BEF91E00E945B0585E292E00E945B05F3
:100540008CE492E00E945B0580E792E00E945B05EC
:1005500082E992E00E945B0580E193E00E945B05E6
:100560000E94570587E493E00E945B050C945705B1
:100570000E94050C1F920F920FB60F9211242F9319
:100580003F934F935F936F937F938F939F93AF931B
:10059000BF93EF93FF938FEE95E00E94FF00FF91D2
:1005A000EF91BF91AF919F918F917F916F915F91EB
:1005B0004F913F912F910F900FBE0F901F90189564
:1005C0001F920F920FB60F9211242F938F939F9328
:1005D000EF93FF93E091FF05F09100068081E09199
:1005E0000506F091060682FD12C0908180910806F2
:1005F0008F5F8F7320910906821751F0E0910806F2
:10060000F0E0E151FA4F958F8093080601C0808198
:10061000FF91EF919F918F912F910F900FBE0F90AF
:100620001F90189590E0FC01E859FF4F3491FC01B0
:10063000E255FF4F2491FC01E656FF4FE491EE2373
:1006400009F43BC0332339F1333091F038F43130C1
:10065000A9F0323001F584B58F7D12C0373091F0AA
:100660003830A1F03430B9F4809180008F7D03C020
:10067000809180008F77809380000DC084B58F7744
:1006800084BD09C08091B0008F7703C08091B00015
:100690008F7D8093B000F0E0EE0FFF1FE458FF4F16
:1006A000A591B4918FB7F894EC91611103C0209596
:1006B0002E2301C02E2B2C938FBF08958F929F92D3
:1006C000AF92BF92CF92DF92EF92FF926B017C01CB
:1006D0000E9493014B015C01C114D104E104F104B7
:1006E000F1F00E949301DC01CB0188199909AA0954
:1006F000BB09883E9340A105B10570F321E0C21A01
:10070000D108E108F10888EE880E83E0981EA11C4C
:10071000B11CC114D104E104F10419F7DDCFFF903D
:10072000EF90DF90CF90BF90AF909F908F90089503
:100730001F920F920FB60F9211242F933F938F9316
:100740009F93AF93BF938091E3059091E405A091AF
:10075000E505B091E6053091E20523E0230F2D3742
:1007600020F40196A11DB11D05C026E8230F0296B5
:10077000A11DB11D2093E2058093E3059093E4054C
:10078000A093E505B093E6058091E7059091E80513
:10079000A091E905B091EA050196A11DB11D8093D4
:1007A000E7059093E805A093E905B093EA05BF91AA
:1007B000AF919F918F913F912F910F900FBE0F900E
:1007C0001F9018951F920F920FB60F9211242F931E
:1007D0003F934F935F936F937F938F939F93AF93C9
:1007E000BF93EF93FF93E091ED05F091EE05309705
:1007F00009F451C0968DA685B785858591FF04C003
:100800009C91892329F447C09C91892309F043C016
:10081000A389B4899C918589809589238C93868945
:1008200097890197F1F7608D718DA685B7855585FC
:1008300038E020E0CB010197F1F7822F90E0959509
:100840008795282F4C91452309F02068315091F766
:10085000868D81FD20958091EC0590E001968F7347
:1008600099273091EB05381749F0A091EC05B0E0DD
:10087000AE55BA4F2C938093EC0503C0868D8160F2
:10088000868F828D938D0197F1F7A389B4899C910E
:100890008589892B8C93FF91EF91BF91AF919F91A7
:1008A0008F917F916F915F914F913F912F910F9019
:1008B0000FBE0F901F901895DC01ED91FC910190F7
:1008C000F081E02D0994009769F0FC01019000206F
:1008D000E9F73197AF01481B590BBC018FEE95E04A
:1008E0000C948D0080E090E00895CF9380918C0669
:1008F00090918D06CCEF892BF9F480918E06909122
:100900008F06DC01ED91FC910084F185E02D0995C5
:10091000892BF9F461E070E080E090E00E945E03D2
:10092000C15059F780E016C061E070E080E090E0CF
:100930000E945E03C150B1F380918C0690918D06A8
:10094000DC01ED91FC910084F185E02D0995892B66
:1009500059F381E0CF91089580918C0690918D0696
:10096000892B01F580918E0690918F06DC01ED9127
:10097000FC910084F185E02D0995892B91F08091FF
:100980008E0690918F06DC01ED91FC910284F38537
:10099000E02D099561E070E080E090E00E945E0348
:1009A000E1CF089580918C0690918D06DC01ED9148
:1009B000FC910084F185E02D0995892B91F08091BF
:1009C0008C0690918D06DC01ED91FC910284F385FB
:1009D000E02D099561E070E080E090E00E945E0308
:1009E000E1CF08951F93CF93DF9380918C06909170
:1009F0008D0610E0CFEFDFEF892B09F041C0809129
:100A00008E0690918F06DC01ED91FC910084F185BA
:100A1000E02D0995892B09F445C080918E069091AF
:100A20008F06DC01ED91FC910284F385E02D0995A0
:100A3000111104C0D82FB0E0CB2F03C0113009F43E
:100A4000C82B1F5F61E070E080E090E00E945E03D1
:100A5000D6CF80918C0690918D06DC01ED91FC91B2
:100A60000284F385E02D0995111118C0D82FB0E04C
:100A7000CB2F1F5F61E070E080E090E00E945E039A
:100A800080918C0690918D06DC01ED91FC910084A3
:100A9000F185E02D0995892BE1F604C0113049F765
:100AA000C82BE7CFCE01DF91CF911F9108958EE93A
:100AB00095E00C946304CF93DF930E946304EC01F0
:100AC0000E9457058C0F9D1FDF91CF910895CF9302
:100AD000DF930E947504882309F448C080918C0636
:100AE00090918D06D0E0CEEF892B11F580918E0686
:100AF00090918F06DC01ED91FC910084F185E02D51
:100B00000995892B89F1DD2311F0DF5FEFCF80910B
:100B10008E0690918F06DC01ED91FC910284F385A5
:100B2000E02D0995C82FD1E0E1CFDD2379F0DF5F1B
:100B300080918C0690918D06DC01ED91FC910084F2
:100B4000F185E02D0995892B81F70EC080918C06E7
:100B500090918D06DC01ED91FC910284F385E02DEE
:100B60000995C82FD1E0E4CF8C2F01C08FEFDF9122
:100B7000CF910895CF92DF92EF92FF920F931F9340
:100B8000CF93DF93D82F80918C0690918D06C2E091
:100B9000CD0F892B09F052C00E94AC0480918E06C3
:100BA00090918F06DC01ED91FC910190F081E02D98
:100BB0006EE7099580918E0690918F06DC01ED918C
:100BC000FC910190F081E02D6C2F099591E9E92EBF
:100BD00096E0F92E870180918E0690918F06202F46
:100BE0002E192D1778F46801DC01ED91FC9101902C
:100BF000F081E02DD8016D918D010995F60180817C
:100C0000C80FE9CFDC01ED91FC910190F081E02D5E
:100C10006C2F099580918E0690918F06DC01ED91E5
:100C2000FC910190F081E02D6FEEDF91CF911F914B
:100C30000F91FF90EF90DF90CF9009940E94AC0449
:100C40006EE770E080918C0690918D060E945C04A6
:100C50006D2F70E06E5F7F4F80918C0690918D06B6
:100C60000E945C0481E9E82E86E0F82E8701A091BD
:100C70008C06B0918D06802F8E198D1780F4680137
:100C8000ED91FC91119720813181F80161918F01E3
:100C9000CD01F9010995D6018C91C80FE8CFED91EE
:100CA000FC9111970190F081E02D6C2FCD010995F9
:100CB0006FEE70E080918C0690918D06DF91CF9160
:100CC0001F910F91FF90EF90DF90CF900C945C04F8
:100CD0009EEA90939106803208F08FE1809392060D
:100CE00082E00E94BA050C9467051F93CF93DF93AF
:100CF00085EC8093910681E00E94BA050E947504FC
:100D0000882309F464C080918C0690918D0610E0D0
:100D1000CFEFDFEF892B09F040C080918E069091D4
:100D20008F06DC01ED91FC910084F185E02D0995A1
:100D3000892B09F44AC080918E0690918F06DC01C0
:100D4000ED91FC910284F385E02D0995112349F082
:100D5000113021F4D82FB0E0CB2F03C0123009F4AA
:100D6000C82B1F5F61E070E080E090E00E945E03AE
:100D7000D4CF80918C0690918D06DC01ED91FC9191
:100D80000284F385E02D0995111115C01F5F61E004
:100D900070E080E090E00E945E0380918C0690916C
:100DA0008D06DC01ED91FC910084F185E02D099523
:100DB000892BF9F60AC0113021F4D82FB0E0CB2FDF
:100DC000E5CF123019F7C82BE1CFCE0102C080E089
:100DD00090E0DF91CF911F9108958F929F92AF92F3
:100DE000BF920F931F93CF93DF93CDB7DEB7A19739
:100DF0000FB6F894DEBF0FBECDBF19A2423008F483
:100E00004AE08E010F5D1F4F842E912CA12CB12C36
:100E1000A50194010E94C90BE62FB901CA01015036
:100E20001109EA3014F4E05D01C0E95CD801EC93EB
:100E3000232B242B252B61F7C8010E946304A19664
:100E40000FB6F894DEBF0FBECDBFDF91CF911F91DB
:100E50000F91BF90AF909F908F9008950C94630472
:100E6000CF938BEC8093910681E00E94BA050E949B
:100E70007504811110C085E480939C0682E78093FD
:100E80009D0680939E069FE690939F068093A00602
:100E90001092A1065CC080918C0690918D06C0E0F6
:100EA000892B09F045C080918E0690918F06DC0158
:100EB000ED91FC910084F185E02D0995892B09F4D1
:100EC00044C080918E0690918F06DC01ED91FC91DB
:100ED0000284F385E02D09959FEF9C0F983028F44C
:100EE000EC2FF0E0E457F94F8787CF5F61E070E0C7
:100EF00080E090E00E945E03D6CF80918E069091B4
:100F00008F06DC01ED91FC910284F385E02D0995BB
:100F10009FEF9C0F983028F4EC2FF0E0E457F94F46
:100F20008787CF5F61E070E080E090E00E945E0321
:100F300080918C0690918D06DC01ED91FC910084EE
:100F4000F185E02D0995892BC1F61092A406CF9169
:100F5000089582EC8093910681E00E94BA050E9478
:100F60007504882319F00E94F20408958FEF089504
:100F7000CF92DF92EF92FF92CF93DF936C01990FA4
:100F8000EE08FF08F7FE1FC0E091EF05F091F005B5
:100F90000190F081E02D6DE28FEE95E00995EC0176
:100FA00066277727CB016C197D098E099F094AE0D6
:100FB0000E94ED068C0F9D1FDF91CF91FF90EF9067
:100FC000DF90CF9008954AE0C701B601DF91CF913D
:100FD000FF90EF90DF90CF900C94ED0681EC809322
:100FE000910681E00E94BA050E947504882319F0D9
:100FF0000E94F20408958FEF0895789484B582607A
:1010000084BD84B5816084BD85B5826085BD85B5AC
:10101000816085BD80916E00816080936E0010922A
:1010200081008091810082608093810080918100A5
:101030008160809381008091800081608093800036
:101040008091B10084608093B1008091B000816094
:101050008093B00080917A00846080937A008091C0
:101060007A00826080937A0080917A008160809318
:101070007A0080917A00806880937A001092C10093
:10108000E091FF05F091000682E08083E091FB058E
:10109000F091FC051082E091FD05F091FE058FECCA
:1010A000808310920706E0910306F091040686E023
:1010B0008083E0910106F091020680818061808347
:1010C000E0910106F0910206808188608083E091C2
:1010D0000106F0910206808180688083E09101061C
:1010E000F091020680818F7D808310928D06109290
:1010F0008C0685EA96E090938F0680938E06109278
:10110000C0061092BF061092BE061092BD06109245
:10111000BC061092BB068DE991E09093C2068093C5
:10112000C1069091B106963108F057C02DEB30E022
:101130003093BC062093BB062BE931E03093BE060A
:101140002093BD062CE231E03093C0062093BF0609
:1011500020916800983050F031E09E3008F430E083
:1011600081E001C0880F3A95EAF701C084E0822B44
:1011700080936800983038F09E3040F0963148F007
:1011800020E030E008C02DE630E005C02BE630E07E
:1011900002C02CE630E03093B9062093B8069830B0
:1011A00030F481E001C0880F9A95EAF70EC0292F2C
:1011B00030E09E3018F42850310902C02E50310919
:1011C00081E001C0880F2A95EAF78093BA068091E2
:1011D000C1069091C2060197F1F78091BF069091E8
:1011E000C006892B21F18091ED059091EE0526E056
:1011F000853A9207E1F0009711F00E945E0280911B
:10120000C3068E7F8093C3061092EC051092EB0507
:1012100085EA96E09093EE058093ED05E091B8069F
:10122000F091B90690818091BA06892B8083109243
:101230009006E1E9F6E08BE08E0F11928E13FDCF60
:1012400087E693E00E945B050E9457050E947802A2
:101250008EE893E00E942E070E947506BC0180E094
:1012600090E04AE00E94ED060E9457050E94750634
:10127000892B29F48CEA93E00E945B05FFCF84E080
:101280000E94680682EA809391061092920681E09D
:101290008093930683E00E94BA050E94670582EA64
:1012A000A82EDFEADD24D3949BEA992E2AEAC22EE7
:1012B0003DEA832E4CEAB42E8FEE95E00E94E900C1
:1012C000892B09F43EC18FEE95E00E94C700C82F1C
:1012D0008B3249F480E094E00E942E070E94EE07D2
:1012E000C1E0C80F0DC08D32C1F480E194E00E94CE
:1012F0002E070E94EE07CFEFC80FC03208F0C0E003
:101300008C2F0E9468066C2F70E080E090E04AE02D
:101310000E94ED068CE094E00FC18E3639F48EE128
:1013200094E00E945B05B092910608C08C36B1F43F
:1013300084E394E00E945B058092910681E00E9424
:10134000BA050E94670568EC70E080E090E00E94BA
:101350005E030E9430078AE294E0C9C0803769F5D5
:101360000E94A907813061F480E494E00E945B054B
:1013700010920001C092910681E00E94BA05E1C07E
:10138000833091F4C092910681E00E94BA0568EC26
:1013900070E080E090E00E945E0388E594E00E94A7
:1013A0002E070E943007A5C0823009F0CAC0C09243
:1013B000910681E00E94BA05C6CF833751F483E6D7
:1013C00094E00E945B05109200019092910681E0EA
:1013D00056C0813699F4809100018D2580930001DB
:1013E0008BE794E00E942E0780910001882319F07A
:1013F00088E894E0A1C08CE894E09EC08F3389F423
:101400000E94A907813029F40E943007D092000180
:10141000A2CF823019F481E994E08EC087EA94E08B
:101420008BC0873749F48CEB94E00E945B05D09326
:1014300091061092920622C0883749F48CED94E010
:101440000E945B05D0939106D092920617C089370F
:1014500051F48AEF94E00E945B05D093910682E0FC
:10146000809392060CC08A3779F485E195E00E945A
:101470005B05D093910683E08093920682E00E9400
:10148000BA050E9467055DC08FEC8C0F893008F0AB
:1014900056C00E9475067C010C2F0C2E000C110BFF
:1014A0000053110999278017910774F1A0929106B2
:1014B00010929206C053C093930683E00E94BA052F
:1014C0000E9467058FE295E00E942E07C8010E94E6
:1014D000B8078FE395E00E942E076AEF70E080E086
:1014E00090E00E945E030E94300789EA93E00E9428
:1014F0002E0748E050E06CE976E08FEE95E00E9420
:101500008D000E9457051DC086E595E00E942E07BC
:101510006E2D70E080E090E04AE00E94ED068DE6DE
:1015200095E00E945B0584E895E00E942E07C801C3
:101530000E94B80782E895E00E945B0502C00E9405
:1015400078020E94A907823009F580910001882362
:10155000E9F0B092910681E00E94BA050E94670509
:101560006AEF70E080E090E00E945E030E94300726
:101570008AE294E00E942E0748E050E06CE976E0B1
:101580008FEE95E00E948D000E9457050E94890110
:1015900093CE87E191E09093A6068093A50685EA15
:1015A00096E00C945E02CF93DF931092F2051092B6
:1015B000F10588EE93E0A0E0B0E08093F30590930E
:1015C000F405A093F505B093F60525E031E03093DE
:1015D000F0052093EF0525EC30E03093FC052093D7
:1015E000FB0524EC30E03093FE052093FD0520EC54
:1015F00030E0309300062093FF0521EC30E030937B
:1016000002062093010622EC30E03093040620937A
:10161000030626EC30E03093060620930506109270
:1016200008061092090610920A0610920B061092F4
:10163000A8061092A7068093A9069093AA06A093E5
:10164000AB06B093AC0687E191E09093A606809339
:10165000A5061092BC061092BB061092BE06109210
:10166000BD061092C0061092BF061092C2061092DC
:10167000C1066091C3066E7F6D7F6093C306669559
:10168000617081E0682783E00E941203E1EBF0E0E3
:101690002491EDE9F0E08491882399F090E0880F9F
:1016A000991FFC01EA57FF4FA591B491FC01E45842
:1016B000FF4F859194918FB7F894EC91E22BEC93C6
:1016C0008FBFE1EBF0E0E491E093B506EDE9F0E0E7
:1016D000E491F0E0EE0FFF1FE458FF4F85919491E5
:1016E0009093B7068093B606E0EBF0E02491ECE926
:1016F000F0E084918823C1F090E0880F991FFC01ED
:10170000EA57FF4FC591D491FC01E458FF4FA591D2
:10171000B4919FB7F8948881E22FE0958E23888357
:101720008C91E823EC939FBF8091C30681FD04C098
:1017300061E082E00E94120382E08093B106E0EB58
:10174000F0E0E491E093B206ECE9F0E0E491F0E03F
:10175000EE0FFF1FE057FF4F859194919093B406D1
:101760008093B306DF91CF91089597FB072E16F46F
:10177000009407D077FD09D00E94EB0B07FC05D041
:101780003EF4909581959F4F0895709561957F4F98
:101790000895A1E21A2EAA1BBB1BFD010DC0AA1FB2
:1017A000BB1FEE1FFF1FA217B307E407F50720F0CA
:1017B000A21BB30BE40BF50B661F771F881F991F45
:1017C0001A9469F760957095809590959B01AC018E
:1017D000BD01CF010895AA1BBB1B51E107C0AA1F81
:1017E000BB1FA617B70710F0A61BB70B881F991FC2
:1017F0005A95A9F780959095BC01CD010895EE0FFB
:10180000FF1F0590F491E02D099481E090E0F89499
:101810000C940A0C10E0C2E6D0E004C0FE010E9465
:0E182000FF0B2196C336D107C9F7F894FFCF0E
:10182E00010000000020018D00B8006701E900C72B
:10183E0000DB0000000000D1018D007502D00125F3
:10184E00023D02B8014D503320436F6D6D616E64E1
:10185E00204C6973743A002D2D2D2D2D2D2D2D2DEF
:10186E002D2D2D2D2D2D2D2D00272B27206F722068
:10187E00272D2720203A2072616973652F6C6F77B0
:10188E00657220766F6C756D6500276E27206F72FE
:10189E0020276C2720203A206E6578742F6C617398
:1018AE007420736F6E670027702720202020202061
:1018BE002020203A20706C6179206F722070617543
:1018CE007365002773272020202020202020203A17
:1018DE002073746F7020706C6179696E6700276178
:1018EE00272020202020202020203A20746F676798
:1018FE006C65206175746F706C617900273F2720CD
:10190E0020202020202020203A2077686174206932
:10191E007320706C6179696E673F002777272020EE
:10192E00202020202020203A2073657420706C61C6
:10193E00796D6F64652073696E676C65206E6F20BC
:10194E006C6F6F7000277827202020202020202009
:10195E00203A2073657420706C61796D6F64652018
:10196E0073696E676C65206C6F6F70002779272026
:10197E0020202020202020203A2073657420706CB7
:10198E0061796D6F646520616C6C206C6F6F700097
:10199E00277A272020202020202020203A2073651F
:1019AE007420706C61796D6F64652072616E646F06
:1019BE006D002758272020202020202020203A208C
:1019CE00706C6179207468652066696C6520746836
:1019DE0061742077617320636F7069656420746F22
:1019EE002074686520534420636172642061732003
:1019FE00746865205874682066696C65202D20799E
:101A0E006F75206A757374207479706520746865BB
:101A1E00206E756D62657220796F752077616E74B8
:101A2E00202D20287820696E205B312C395D29000D
:101A3E002020202020202020202020202028596512
:101A4E00732C2074686973207265616C6C792064E4
:101A5E006F657320676F20627920636F7079206FD6
:101A6E00726465722E2900416E79206F74686572FA
:101A7E00206B657920746F2073686F7720746869A6
:101A8E0073206D656E75004D503320427265616B2B
:101A9E006F7574202D204578616D706C6531205303
:101AAE00657269616C20436F6E74726F6C004E7557
:101ABE006D626572206F6620747261636B73206F46
:101ACE006E20534420636172643A20004F68206E8A
:101ADE006F21204E6F20736F6E677320666F756E69
:101AEE00642E2E2E2074727920616464696E6720D4
:101AFE00736F6E6773206F7220706C756767696E97
:101B0E006720696E20746865207364206361726457
:101B1E00207468656E2074727920616761696E0049
:101B2E00566F6C756D652075703A20002F3331003D
:101B3E00566F6C756D6520646F776E3A20004E653A
:101B4E00787420747261636B3A00506C6179696EBF
:101B5E00673A20004C61737420747261636B3A00B3
:101B6E005061757365643A202827702720746F20A2
:101B7E00726573756D652900526573756D696E6753
:101B8E003A200053746F7070696E673A2028277080
:101B9E002720746F20706C617929004175746F7005
:101BAE006C61792069732000206F6E00206F66666D
:101BBE00004D503320706C6179657220697320730B
:101BCE00746F70706564004D503320706C61796570
:101BDE00722069732070617573656400536574209B
:101BEE00706C6179206D6F646520746F2027536966
:101BFE006E676C654E6F4C6F6F7027005365742067
:101C0E00706C6179206D6F646520746F2027536945
:101C1E006E676C654C6F6F70270053657420706C27
:101C2E006179206D6F646520746F2027416C6C4C58
:101C3E006F6F70270053657420706C6179206D6F23
:101C4E00646520746F202752616E646F6D2700509B
:101C5E006C6179696E6720747261636B202300205A
:101C6E0028696E20636F70792D746F2D7364206FE9
:101C7E007264657229004572726F723A20546865FB
:101C8E00726520617265206F6E6C79200020736F13
:101C9E006E6773206F6E20746865205344206361F5
:101CAE0072642E00596F752061736B656420746FBA
:101CBE0020706C617920736F6E67202320000D0AEF
:021CCE00000014
:107E0000112484B714BE81FFF0D085E080938100F7
:107E100082E08093C00088E18093C10086E0809377
:107E2000C20080E18093C4008EE0C9D0259A86E02C
:107E300020E33CEF91E0309385002093840096BBD3
:107E4000B09BFECF1D9AA8958150A9F7CC24DD24C4
:107E500088248394B5E0AB2EA1E19A2EF3E0BF2EE7
:107E6000A2D0813461F49FD0082FAFD0023811F036
:107E7000013811F484E001C083E08DD089C08234E0
:107E800011F484E103C0853419F485E0A6D080C0E4
:107E9000853579F488D0E82EFF2485D0082F10E0AE
:107EA000102F00270E291F29000F111F8ED06801E7
:107EB0006FC0863521F484E090D080E0DECF843638
:107EC00009F040C070D06FD0082F6DD080E0C81688
:107ED00080E7D80618F4F601B7BEE895C0E0D1E017
:107EE00062D089930C17E1F7F0E0CF16F0E7DF06D8
:107EF00018F0F601B7BEE89568D007B600FCFDCFD4
:107F0000A601A0E0B1E02C9130E011968C91119780
:107F100090E0982F8827822B932B1296FA010C0160
:107F200087BEE89511244E5F5F4FF1E0A038BF0790
:107F300051F7F601A7BEE89507B600FCFDCF97BE46
:107F4000E89526C08437B1F42ED02DD0F82E2BD052
:107F50003CD0F601EF2C8F010F5F1F4F84911BD097
:107F6000EA94F801C1F70894C11CD11CFA94CF0C13
:107F7000D11C0EC0853739F428D08EE10CD085E9AC
:107F80000AD08FE07ACF813511F488E018D01DD067
:107F900080E101D065CF982F8091C00085FFFCCF94
:107FA0009093C60008958091C00087FFFCCF809118
:107FB000C00084FD01C0A8958091C6000895E0E648
:107FC000F0E098E1908380830895EDDF803219F02E
:107FD00088E0F5DFFFCF84E1DECF1F93182FE3DFCA
:107FE0001150E9F7F2DF1F91089580E0E8DFEE27F6
:047FF000FF270994CA
:027FFE00040479
:0400000300007E007B
:00000001FF
